:020000040800F2
:1000000000000120493F0008F13B0008F93B0008CF
:10001000013C0008093C0008113C000800000000F9
:100020000000000000000000000000002140000867
:10003000193C00080000000021410008253C000890
:10004000913F0008913F0008913F0008913F000850
:10005000913F0008913F0008913F0008913F000840
:10006000913F0008913F0008913F0008913F000830
:10007000913F0008913F0008913F0008913F000820
:10008000913F0008913F0008913F0008913F000810
:10009000913F0008913F0008913F0008913F000800
:1000A000913F0008913F0008913F0008913F0008F0
:1000B000913F0008913F0008913F0008913F0008E0
:1000C000913F0008913F0008913F0008913F0008D0
:1000D000913F0008913F00083D3C0008913F000817
:1000E000913F0008913F0008913F0008913F0008B0
:1000F000913F0008913F0008913F0008913F0008A0
:10010000913F0008913F0008913F0008913F00088F
:10011000913F0008913F0008913F0008513C0008C2
:10012000913F0008913F0008913F0008913F00086F
:1001300000000000000000000000000000000000BF
:1001400000000000000000000000000000000000AF
:10015000000000000000000000000000000000009F
:10016000000000000000000000000000000000008F
:10017000000000000000000000000000000000007F
:10018000000000000000000000000000000000006F
:10019000000000000000000000000000000000005F
:1001A000000000000000000000000000000000004F
:1001B000000000000000000000000000000000003F
:1001C000000000000000000000000000000000002F
:1001D000000000000000000000000000000000001F
:0401E0005FF8E0F1F3
:1001F000034613F8012B002AFBD1181A0138704767
:100200000348044B834202D0034B03B118477047A5
:100210007000002070000020000000000548064B20
:100220001B1AD90F01EBA301491002D0034B03B1F4
:100230001847704770000020700000200000000088
:1002400010B5064C237843B9FFF7DAFF044B13B11E
:100250000448AFF300800123237010BD700000201C
:1002600000000000B45F000808B5054B1BB105494C
:100270000548AFF30080BDE80840FFF7CFBF00BFDF
:100280000000000074000020B45F000880B400AFDC
:1002900000BFBD4680BC704780B582B000AF7860BB
:1002A0007B68002B01D1012341E07B6893F83D304E
:1002B000DBB2002B06D17B68002283F83C207868F3
:1002C00003F09AFB7B68022283F83D207B681A6862
:1002D0007B6804331946104600F06AFA7B680122F5
:1002E00083F846207B68012283F83E207B68012248
:1002F00083F83F207B68012283F840207B6801223D
:1003000083F841207B68012283F842207B68012228
:1003100083F843207B68012283F844207B68012214
:1003200083F845207B68012283F83D20002318468E
:100330000837BD4680BD000080B485B000AF78604E
:100340007B6893F83D30DBB2012B01D0012344E000
:100350007B68022283F83D207B681B68DA687B6833
:100360001B6842F00102DA607B681B681D4A9342F9
:1003700018D07B681B681C4A934213D07B681B68AB
:10038000B3F1804F0ED07B681B68184A934209D0A6
:100390007B681B68164A934204D07B681B68154A29
:1003A000934211D17B681B689B6803F00703FB60D5
:1003B000FB68062B10D07B681B681A687B681B687B
:1003C00042F001021A6007E07B681B681A687B68CC
:1003D0001B6842F001021A60002318461437BD461C
:1003E00080BC7047002C01400034014000040040F4
:1003F00000080040000C004080B584B000AF786079
:100400007B681B68DB68FB607B681B681B69BB60E3
:10041000BB6803F00203002B20D0FB6803F002034B
:10042000002B1BD07B681B686FF002021A617B688F
:1004300001221A777B681B689B6903F00303002B7A
:1004400003D0786800F098F905E0786800F08BF93F
:10045000786800F09AF97B6800221A77BB6803F08D
:100460000403002B20D0FB6803F00403002B1BD0F7
:100470007B681B686FF004021A617B6802221A779E
:100480007B681B689B6903F44073002B03D078687A
:1004900000F072F905E0786800F065F9786800F01E
:1004A00074F97B6800221A77BB6803F00803002BFD
:1004B00020D0FB6803F00803002B1BD07B681B686F
:1004C0006FF008021A617B6804221A777B681B6848
:1004D000DB6903F00303002B03D0786800F04CF9CC
:1004E00005E0786800F03FF9786800F04EF97B6825
:1004F00000221A77BB6803F01003002B20D0FB68A2
:1005000003F01003002B1BD07B681B686FF01002F8
:100510001A617B6808221A777B681B68DB6903F421
:100520004073002B03D0786800F026F905E0786866
:1005300000F019F9786800F028F97B6800221A7732
:10054000BB6803F00103002B0CD0FB6803F0010330
:10055000002B07D07B681B686FF001021A61786876
:1005600003F0A8F9BB6803F08003002B0CD0FB68F4
:1005700003F08003002B07D07B681B686FF08002BC
:100580001A61786800F0A5FABB6803F04003002BFD
:100590000CD0FB6803F04003002B07D07B681B687E
:1005A0006FF040021A61786800F0F8F8BB6803F059
:1005B0002003002B0CD0FB6803F02003002B07D096
:1005C0007B681B686FF020021A61786800F078FA87
:1005D00000BF1037BD4680BD80B584B000AF7860E5
:1005E00039600023FB737B6893F83C30012B01D109
:1005F0000223B4E07B68012283F83C207B6802225E
:1006000083F83D207B681B689B68BB60BB6823F058
:100610007703BB60BB6823F47F43BB607B681B68C8
:10062000BA689A603B681B68B3F5005F3ED0B3F5CB
:10063000005F00F28780B3F5805F00F08680B3F53D
:10064000805F7FD8702B1AD0702B7BD8602B50D056
:10065000602B77D8502B3CD0502B73D8402B58D0E0
:10066000402B6FD8302B64D0302B6BD8202B60D030
:10067000202B67D8002B5CD0102B5AD062E07B680F
:1006800018683B6899683B685A683B68DB6800F00B
:100690008CF97B681B689B68BB60BB6843F0770381
:1006A000BB607B681B68BA689A604FE07B6818681B
:1006B0003B6899683B685A683B68DB6800F075F9ED
:1006C0007B681B689A687B681B6842F480429A606A
:1006D0003CE07B6818683B6859683B68DB681A46F1
:1006E00000F0ECF87B681B685021184600F043F9D5
:1006F0002CE07B6818683B6859683B68DB681A46E1
:1007000000F00AF97B681B686021184600F033F995
:100710001CE07B6818683B6859683B68DB681A46D0
:1007200000F0CCF87B681B684021184600F023F9E4
:100730000CE07B681A683B681B681946104600F09D
:100740001AF903E00123FB7300E000BF7B6801227C
:1007500083F83D207B68002283F83C20FB7B184611
:100760001037BD4680BD80B483B000AF786000BF55
:100770000C37BD4680BC704780B483B000AF786052
:1007800000BF0C37BD4680BC704780B483B000AF5B
:10079000786000BF0C37BD4680BC704780B483B022
:1007A00000AF786000BF0C37BD4680BC70470000CA
:1007B00080B485B000AF786039607B681B68FB60EF
:1007C0007B68394A934213D07B68384A93420FD0F2
:1007D0007B68B3F1804F0BD07B68354A934207D0DA
:1007E0007B68344A934203D07B68334A934208D1F2
:1007F000FB6823F07003FB603B685B68FA68134397
:10080000FB607B68284A934213D07B68274A934257
:100810000FD07B68B3F1804F0BD07B68244A9342A2
:1008200007D07B68234A934203D07B68224A9342D5
:1008300008D1FB6823F44073FB603B68DB68FA680F
:100840001343FB60FB6823F080023B685B69134342
:10085000FB607B68FA681A603B689A687B68DA62BA
:100860003B681A687B689A627B680F4A934203D0A0
:100870007B680E4A934203D13B681A697B681A630E
:100880007B6801225A617B681B6903F00103002B1E
:1008900005D07B681B6923F001027B681A6100BFE9
:1008A0001437BD4680BC7047002C01400034014025
:1008B0000004004000080040000C004080B487B0F5
:1008C00000AFF860B9607A60FB681B6A7B61FB6807
:1008D0001B6A23F00102FB681A62FB689B693B619B
:1008E0003B6923F0F0033B617B681B013A691343CA
:1008F0003B617B6923F00A037B617A69BB68134320
:100900007B61FB683A699A61FB687A691A6200BF89
:100910001C37BD4680BC704780B487B000AFF8601C
:10092000B9607A60FB681B6A7B61FB681B6A23F015
:100930001002FB681A62FB689B693B613B6923F408
:1009400070433B617B681B033A6913433B617B69DE
:1009500023F0A0037B61BB681B017A6913437B61B1
:10096000FB683A699A61FB687A691A6200BF1C37B2
:10097000BD4680BC704780B485B000AF78603960F8
:100980007B689B68FB60FB6823F07003FB603A6840
:10099000FB68134343F00703FB607B68FA689A60C7
:1009A00000BF1437BD4680BC704780B487B000AF2D
:1009B000F860B9607A603B60FB689B687B617B692B
:1009C00023F47F437B613B681A027B681A43BB6850
:1009D00013437A6913437B61FB687A699A6000BFAD
:1009E0001C37BD4680BC704780B485B000AF7860CE
:1009F00039607B6893F83C30012B01D1022350E031
:100A00007B68012283F83C207B68022283F83D202A
:100A10007B681B685B68FB607B681B689B68BB60CE
:100A2000FB6823F07003FB603B681B68FA681343A4
:100A3000FB607B681B68FA685A607B681B681B4A0E
:100A4000934218D07B681B68194A934213D07B6885
:100A50001B68B3F1804F0ED07B681B68154A934228
:100A600009D07B681B68144A934204D07B681B68DA
:100A7000124A93420CD1BB6823F08003BB603B68F1
:100A80005B68BA681343BB607B681B68BA689A608E
:100A90007B68012283F83D207B68002283F83C209C
:100AA000002318461437BD4680BC7047002C014017
:100AB000003401400004004000080040000C0040E9
:100AC00080B483B000AF786000BF0C37BD4680BCF7
:100AD000704780B483B000AF786000BF0C37BD466C
:100AE00080BC704780B500AF084B1B68074A43F0D5
:100AF00010031360032001F02AF80F2003F0E4F83C
:100B000003F0B0F80023184680BD00BF002002406B
:100B100080B400AF054B1B781A46054B1B68134485
:100B2000034A136000BFBD4680BC70470C00002024
:100B30008C00002080B400AF024B1B681846BD46F5
:100B400080BC70478C00002080B584B000AF786016
:100B5000FFF7F0FFB8607B68FB60FB68B3F1FF3F15
:100B600005D00A4B1B781A46FB681344FB6000BF94
:100B7000FFF7E0FF0246BB68D31AFA689A42F7D83B
:100B800000BF00BF1037BD4680BD00BF0C00002075
:100B900080B586B000AF78607B68002B01D101235F
:100BA00072E27B681B6803F00103002B00F0878072
:100BB000924B5B6803F00C03042B0CD08F4B5B68EB
:100BC00003F00C03082B12D18C4B5B6803F48033C9
:100BD000B3F5803F0BD1894B1B6803F40033002B26
:100BE0006CD07B685B68002B68D101234CE27B688A
:100BF0005B68B3F5803F06D1804B1B687F4A43F4A6
:100C0000803313602EE07B685B68002B0CD17B4B3C
:100C10001B687A4A23F480331360784B1B68774A49
:100C200023F4802313601DE07B685B68B3F5A02F7D
:100C30000CD1724B1B68714A43F4802313606F4BD5
:100C40001B686E4A43F4803313600BE06B4B1B68E8
:100C50006A4A23F480331360684B1B68674A23F4A5
:100C6000802313607B685B68002B13D0FFF762FF63
:100C7000386108E0FFF75EFF02463B69D31A642B38
:100C800001D9032300E25D4B1B6803F40033002B02
:100C9000F0D014E0FFF74EFF386108E0FFF74AFF9D
:100CA00002463B69D31A642B01D90323ECE1534B71
:100CB0001B6803F40033002BF0D100E000BF7B6819
:100CC0001B6803F00203002B63D04C4B5B6803F0FE
:100CD0000C03002B0BD0494B5B6803F00C03082B73
:100CE0001CD1464B5B6803F48033002B16D1434B79
:100CF0001B6803F00203002B05D07B681B69012BE6
:100D000001D00123C0E13D4B1B6823F0F8027B6852
:100D10005B69DB00394913430B603AE07B681B6970
:100D2000002B20D0364B01221A60FFF703FF3861F9
:100D300008E0FFF7FFFE02463B69D31A022B01D9F8
:100D40000323A1E12D4B1B6803F00203002BF0D01D
:100D50002A4B1B6823F0F8027B685B69DB0027499C
:100D600013430B6015E0264B00221A60FFF7E2FEEA
:100D7000386108E0FFF7DEFE02463B69D31A022B1A
:100D800001D9032380E11D4B1B6803F00203002BF4
:100D9000F0D17B681B6803F00803002B3AD07B6816
:100DA0009B69002B19D0174B01221A60FFF7C2FE76
:100DB000386108E0FFF7BEFE02463B69D31A022BFA
:100DC00001D9032360E10D4B5B6A03F00203002BA2
:100DD000F0D0012000F0FEFA1CE00A4B00221A605D
:100DE000FFF7A8FE38610FE0FFF7A4FE02463B695B
:100DF000D31A022B08D9032346E100BF001002409A
:100E00000000424280044242924B5B6A03F00203BC
:100E1000002BE9D17B681B6803F00403002B00F072
:100E2000A6800023FB758B4BDB6903F08053002BFE
:100E30000DD1884BDB69874A43F08053D361854BE2
:100E4000DB6903F08053BB60BB680123FB75824BF9
:100E50001B6803F48073002B18D17F4B1B687E4AFC
:100E600043F480731360FFF765FE386108E0FFF715
:100E700061FE02463B69D31A642B01D9032303E1C7
:100E8000754B1B6803F48073002BF0D07B68DB6824
:100E9000012B06D16F4B1B6A6E4A43F001031362AC
:100EA0002DE07B68DB68002B0CD16A4B1B6A694A1A
:100EB00023F001031362674B1B6A664A23F00403A5
:100EC00013621CE07B68DB68052B0CD1614B1B6A4D
:100ED000604A43F0040313625E4B1B6A5D4A43F0B1
:100EE000010313620BE05B4B1B6A5A4A23F00103B8
:100EF0001362584B1B6A574A23F0040313627B6842
:100F0000DB68002B15D0FFF715FE38610AE0FFF70C
:100F100011FE02463B69D31A41F28832934201D94D
:100F20000323B1E04B4B1B6A03F00203002BEED00E
:100F300014E0FFF7FFFD38610AE0FFF7FBFD024612
:100F40003B69D31A41F28832934201D903239BE0D3
:100F5000404B1B6A03F00203002BEED1FB7D012BFB
:100F600005D13C4BDB693B4A23F08053D3617B685E
:100F7000DB69002B00F08780364B5B6803F00C03C5
:100F8000082B61D07B68DB69022B46D1334B0022F2
:100F90001A60FFF7CFFD386108E0FFF7CBFD02468E
:100FA0003B69D31A022B01D903236DE0294B1B683F
:100FB00003F00073002BF0D17B681B6AB3F5803F10
:100FC00008D1244B5B6823F400327B689B6821497D
:100FD00013434B601F4B5B6823F474127B68196AE0
:100FE0007B685B6A0B431B4913434B601B4B01221D
:100FF0001A60FFF79FFD386108E0FFF79BFD02468E
:101000003B69D31A022B01D903233DE0114B1B6826
:1010100003F00073002BF0D035E0104B00221A6073
:10102000FFF788FD386108E0FFF784FD02463B6961
:10103000D31A022B01D9032326E0064B1B6803F0C9
:101040000073002BF0D11EE07B68DB69012B07D118
:10105000012319E00010024000700040600042428D
:101060000B4B5B68FB60FB6803F480327B681B6A98
:101070009A4206D1FB6803F470127B685B6A9A425D
:1010800001D0012300E0002318461837BD4680BD7B
:101090000010024080B584B000AF786039607B6892
:1010A000002B01D10123D0E06A4B1B6803F007033A
:1010B0003A689A4210D9674B1B6823F007026549CA
:1010C0003B6813430B60634B1B6803F007033A68EC
:1010D0009A4201D00123B8E07B681B6803F0020349
:1010E000002B20D07B681B6803F00403002B05D085
:1010F000594B5B68584A43F4E06353607B681B6854
:1011000003F00803002B05D0534B5B68524A43F4AD
:1011100060535360504B5B6823F0F0027B689B6820
:101120004D4913434B607B681B6803F00103002BA0
:1011300040D07B685B68012B07D1474B1B6803F4E9
:101140000033002B15D101237FE07B685B68022B05
:1011500007D1414B1B6803F00073002B09D1012319
:1011600073E03D4B1B6803F00203002B01D1012308
:101170006BE0394B5B6823F003027B685B683649A0
:1011800013434B60FFF7D6FCF8600AE0FFF7D2FC90
:101190000246FB68D31A41F28832934201D90323F5
:1011A00053E02D4B5B6803F00C027B685B689B008F
:1011B0009A42EBD1274B1B6803F007033A689A4227
:1011C00010D2244B1B6823F0070222493B681343CB
:1011D0000B60204B1B6803F007033A689A4201D06A
:1011E000012332E07B681B6803F00403002B08D066
:1011F000194B5B6823F4E0627B68DB681649134394
:101200004B607B681B6803F00803002B09D0124B6E
:101210005B6823F460527B681B69DB000E49134353
:101220004B6000F021F802460B4B5B681B0903F092
:101230000F030A49CB5C22FA03F3094A1360094BF6
:101240001B68184602F040FD002318461037BD46C3
:1012500080BD00BF002002400010024078600008FE
:10126000040000200800002080B487B000AF0023F5
:10127000FB600023BB6000237B6100237B600023B5
:101280003B611E4B5B68FB60FB6803F00C03042BA7
:1012900002D0082B03D027E0194B3B6127E0FB6805
:1012A0009B0C03F00F03174AD35C7B60FB6803F4CD
:1012B0008033002B10D0114B5B685B0C03F00103F3
:1012C000114AD35CBB607B680D4A03FB02F2BB682A
:1012D000B2FBF3F37B6104E07B680C4A02FB03F38F
:1012E0007B617B693B6102E0054B3B6100BF3B6971
:1012F00018461C37BD4680BC704700BF0010024036
:1013000000127A0090600008A060000800093D000B
:1013100080B400AF024B1B681846BD4680BC7047C6
:101320000400002080B500AFFFF7F2FF0246054B36
:101330005B681B0A03F007030349CB5C22FA03F343
:10134000184680BD001002408860000880B500AFDC
:10135000FFF7DEFF0246054B5B68DB0A03F007037D
:101360000349CB5C22FA03F3184680BD001002400B
:101370008860000880B483B000AF786039607B6813
:101380000F221A60114B5B6803F003027B685A60FE
:101390000E4B5B6803F0F0027B689A600B4B5B6856
:1013A00003F4E0627B68DA60084B5B68DB0803F4F7
:1013B000E0627B681A61064B1B6803F007023B681A
:1013C0001A6000BF0C37BD4680BC70470010024059
:1013D0000020024080B485B000AF78600A4B1B68E3
:1013E0000A4AA2FB03235B0A7A6802FB03F3FB6051
:1013F00000BFFB685A1EFA60002BF9D100BF00BF86
:101400001437BD4680BC704704000020D34D6210E5
:1014100080B48BB000AF7860396000237B6200231A
:101420003B6263E101227B6A02FA03F37B613B6862
:101430001B687A6913403B613A697B699A4240F0C4
:1014400052813B685B688B4A934247D0894A9342FA
:101450005ED8894A934241D0874A934258D8874AF6
:1014600093423BD0854A934252D8854A934235D025
:10147000834A93424CD8834A93422FD0814A934265
:1014800046D8814A934229D07F4A934240D8122BB2
:101490001FD0122B3CD8112B11D0112B38D8032B75
:1014A00033D0032B34D8022B0ED0022B30D8002B94
:1014B00014D0012B2CD13B68DB683B6229E03B68F0
:1014C000DB6804333B6224E03B68DB6808333B6243
:1014D0001FE03B68DB680C333B621AE03B689B68AB
:1014E000002B02D104233B6213E03B689B68012B75
:1014F00005D108233B627B687A691A6109E00823F9
:101500003B627B687A695A6103E000233B6200E03A
:1015100000BF3B69FF2B02D87B68FB6102E07B6860
:101520000433FB613B69FF2B03D87B6A9B00BB61E3
:1015300003E07B6A083B9B00BB61FB691A680F21D3
:10154000BB6901FA03F3DB431A40396ABB6901FA4C
:1015500003F31A43FB691A603B685B6803F080532E
:10156000002B00F0C080494B9B69484A43F00103BF
:101570009361464B9B6903F00103BB60BB68444A1F
:101580007B6A9B08023352F82330FB607B6A03F0CE
:1015900003039B000F2202FA03F3DB43FA681340B4
:1015A000FB607B683B4A93421FD07B683A4A934278
:1015B00019D07B68394A934213D07B68384A9342EA
:1015C0000DD07B68374A934207D07B68364A9342F6
:1015D00001D105230AE0062308E0042306E00323E3
:1015E00004E0022302E0012300E000237A6A02F013
:1015F000030292009340FA681343FB6024497B6A1C
:101600009B080233FA6841F823203B685B6803F4C7
:101610008013002B06D0254B9A6824493B6913435D
:101620008B6006E0214B9A683B69DB431F491340FE
:101630008B603B685B6803F40013002B06D01B4BE8
:10164000DA681A493B691343CB6006E0174BDA6846
:101650003B69DB4315491340CB603B685B6803F48F
:101660000033002B24D0114B5A6810493B691343B7
:101670004B6024E000003210000031100000221006
:101680000000211000001210000011100010024094
:101690000000014000080140000C01400010014022
:1016A0000014014000180140001C014000040140EA
:1016B000154B5A683B69DB43134913404B603B6849
:1016C0005B6803F48033002B06D00F4B1A680E4979
:1016D0003B6913430B6006E00B4B1A683B69DB4325
:1016E000094913400B607B6A01337B623B681A68CF
:1016F0007B6A22FA03F3002B7FF494AE00BF00BF95
:101700002C37BD4680BC70470004014080B485B0D2
:1017100000AF78600B467B807B689A687B881340BB
:10172000002B02D00123FB7301E00023FB73FB7B42
:1017300018461437BD4680BC704780B483B000AFF4
:1017400078600B467B8013467B707B78002B03D040
:101750007A887B681A6103E07B881A047B681A61C7
:1017600000BF0C37BD4680BC704780B485B000AF69
:1017700078600023FB737B6893F82130DBB2022B87
:1017800008D07B6804229A637B68002283F82020BB
:10179000012320E07B681B681A687B681B6822F0C5
:1017A0000E021A607B681B681A687B681B6822F04F
:1017B00001021A607B681A6C7B68DB6B012101FAFD
:1017C00002F25A607B68012283F821207B680022A4
:1017D00083F82020FB7B18461437BD4680BC704739
:1017E00080B584B000AF78600023FB737B6893F80A
:1017F0002130DBB2022B05D07B6804229A630123DF
:10180000FB73D6E07B681B681A687B681B6822F054
:101810000E021A607B681B681A687B681B6822F0DE
:1018200001021A607B681B681A46644B9A4258D9B9
:101830007B681B68624A93424FD07B681B68614A91
:10184000934248D07B681B685F4A934240D07B68D4
:101850001B685E4A934238D07B681B685C4A93429F
:1018600030D07B681B685B4A934228D07B681B683A
:10187000524A934220D07B681B68574A934219D042
:101880007B681B68554A934212D07B681B68544A98
:1018900093420AD07B681B68524A934202D14FF4AC
:1018A00080531BE04FF4803318E04FF4807315E051
:1018B000102313E0012311E04FF080730EE04FF48A
:1018C00080130BE04FF4803308E04FF4805305E0C1
:1018D0004FF4807302E0102300E00123424A53607A
:1018E00057E07B681B68364A93424FD07B681B6881
:1018F000344A934248D07B681B68334A934240D0B5
:101900007B681B68314A934238D07B681B68304A39
:10191000934230D07B681B682E4A934228D07B6864
:101920001B68264A934220D07B681B682A4A934250
:1019300019D07B681B68294A934212D07B681B68C8
:10194000274A93420AD07B681B68264A934202D1F9
:101950004FF480531BE04FF4803318E04FF4807352
:1019600015E0102313E0012311E04FF080730EE027
:101970004FF480130BE04FF4803308E04FF48053B2
:1019800005E04FF4807302E0102300E00123174AC2
:1019900053607B68012283F821207B68002283F852
:1019A00020207B685B6B002B03D07B685B6B7868C7
:1019B0009847FB7B18461037BD4680BD800002402B
:1019C000080002401C000240300002404400024077
:1019D000580002406C000240080402401C0402400F
:1019E000300402404404024000040240000002406F
:1019F00080B485B000AF78607B6803F00703FB60BC
:101A00000C4BDB68BB60BA684FF6FF031340BB604A
:101A1000FB681A02BB68134343F0BF6343F400330F
:101A2000BB60044ABB68D36000BF1437BD4680BCAE
:101A3000704700BF00ED00E080B400AF044BDB68EE
:101A40001B0A03F007031846BD4680BC704700BF61
:101A500000ED00E080B483B000AF0346FB7197F95E
:101A60000730002B0BDBFB7903F01F02064997F9C7
:101A700007305B09012000FA02F241F8232000BF81
:101A80000C37BD4680BC704700E100E080B483B0F5
:101A900000AF03463960FB7197F90730002B0ADB72
:101AA0003B68DAB20C4997F907301201D2B20B4405
:101AB00083F800230AE03B68DAB20849FB7903F0B7
:101AC0000F03043B1201D2B20B441A7600BF0C374D
:101AD000BD4680BC704700BF00E100E000ED00E0C3
:101AE00080B489B000AFF860B9607A60FB6803F039
:101AF00007037B617B69033B042B04D87B69C3F13B
:101B00000703FB6101E00423FB617B690433062BBF
:101B100003D97B69033BBB6101E00023BB614FF04C
:101B2000FF32FB6902FA03F3DA43BB681A40BB6970
:101B30009A404FF0FF31BB6901FA03F3D9437B6848
:101B40000B40134318462437BD4680BC704780B510
:101B500082B000AF78607868FFF74AFF00BF0837AF
:101B6000BD4680BD80B586B000AF0346B9607A60DF
:101B7000FB7300237B61FFF75FFF78617A68B968C8
:101B80007869FFF7ADFF024697F90F301146184606
:101B9000FFF77CFF00BF1837BD4680BD80B582B01F
:101BA00000AF0346FB7197F907301846FFF752FF65
:101BB00000BF0837BD4680BD80B582B000AF7860F9
:101BC0007B68002B01D1012342E07B6893F8413010
:101BD000DBB2002B06D17B68002283F840207868B6
:101BE00001F07AFF7B68242283F841207B681B6820
:101BF000DA687B681B6822F40052DA60786800F0CB
:101C000061FD7B681B681A697B681B6822F490423F
:101C10001A617B681B685A697B681B6822F02A027C
:101C20005A617B681B68DA687B681B6842F4005263
:101C3000DA607B6800225A647B68202283F84120A6
:101C40007B68202283F842207B6800225A630023AD
:101C500018460837BD4680BD80B58AB002AFF8602F
:101C6000B9603B601346FB8000237B61FB6893F8FF
:101C70004130DBB2202B75D1BB68002B02D0FB8832
:101C8000002B01D101236EE0FB6800225A64FB683F
:101C9000212283F84120FEF74DFF7861FB68FA8826
:101CA0009A84FB68FA88DA84FB689B68B3F5805FE6
:101CB00008D1FB681B69002B04D10023FB61BB68C2
:101CC000BB6103E0BB68FB610023BB612EE03B68A6
:101CD00000937B6900228021F86800F0FFFA034638
:101CE000002B05D0FB68202283F8412003233AE033
:101CF000FB69002B0BD1BB691B881A46FB681B686C
:101D0000C2F308025A60BB690233BB6107E0FB699A
:101D10001A78FB681B685A60FB690133FB61FB683A
:101D2000DB8C9BB2013B9AB2FB68DA84FB68DB8CEC
:101D30009BB2002BCBD13B6800937B6900224021F2
:101D4000F86800F0CBFA0346002B05D0FB68202290
:101D500083F84120032306E0FB68202283F841201A
:101D6000002300E0022318462037BD4680BD000056
:101D700080B5BAB000AF78607B681B681B68C7F895
:101D8000E4307B681B68DB68C7F8E0307B681B6861
:101D90005B69C7F8DC300023C7F8D8300023C7F8E8
:101DA000D430D7F8E43003F00F03C7F8D830D7F8B1
:101DB000D830002B0FD1D7F8E43003F02003002BEC
:101DC00009D0D7F8E03003F02003002B03D0786867
:101DD00000F0BAFB59E2D7F8D830002B00F0DC80D5
:101DE000D7F8DC3003F00103002B06D1D7F8E03040
:101DF00003F49073002B00F0CF80D7F8E43003F0A9
:101E00000103002B0BD0D7F8E03003F48073002BD4
:101E100005D07B685B6C43F001027B685A64D7F89D
:101E2000E43003F00403002B0BD0D7F8DC3003F0D0
:101E30000103002B05D07B685B6C43F002027B68DA
:101E40005A64D7F8E43003F00203002B0BD0D7F824
:101E5000DC3003F00103002B05D07B685B6C43F0A2
:101E600004027B685A64D7F8E43003F00803002BBF
:101E700011D0D7F8E03003F02003002B05D1D7F8BC
:101E8000DC3003F00103002B05D07B685B6C43F072
:101E900008027B685A647B685B6C002B00F0F08161
:101EA000D7F8E43003F02003002B08D0D7F8E03057
:101EB00003F02003002B02D0786800F045FB7B681C
:101EC0001B685B6903F04003C3F38013DBB2C7F800
:101ED000D4307B685B6C03F00803002B03D1D7F888
:101EE000D430002B4FD0786800F051FA7B681B6823
:101EF0005B6903F04003002B41D07B681B681433FF
:101F0000C7F89C30D7F89C3053E8003FC7F89830AA
:101F1000D7F8983023F04003C7F8D0307B681B68AF
:101F20001433D7F8D020C7F8A820C7F8A430D7F8C2
:101F3000A410D7F8A82041E80023C7F8A030D7F8AC
:101F4000A030002BD9D17B68DB6B002B13D07B68D2
:101F5000DB6B7E4A5A637B68DB6B1846FFF740FCFD
:101F60000346002B16D07B68DB6B5B6B7A68D26B09
:101F7000104698470EE0786800F09CF90AE078680F
:101F800000F098F906E0786800F094F97B68002288
:101F90005A6475E100BF73E17B681B6B012B40F055
:101FA0004F81D7F8E43003F01003002B00F0488194
:101FB000D7F8E03003F01003002B00F0418100233C
:101FC000BB607B681B681B68BB607B681B685B68C9
:101FD000BB60BB687B681B685B6903F04003002B38
:101FE00000F0B6807B68DB6B1B685B68A7F8BE30CF
:101FF000B7F8BE30002B00F045817B689B8DB7F8A9
:10200000BE209A4280F03E817B68B7F8BE20DA8518
:102010007B68DB6B9B69202B00F088807B681B68EA
:102020000C33C7F88830D7F8883053E8003FC7F83A
:102030008430D7F8843023F48073C7F8B8307B68D5
:102040001B680C33D7F8B820C7F89420C7F8903035
:10205000D7F89010D7F8942041E80023C7F88C30C7
:10206000D7F88C30002BD9D17B681B6814337B6781
:102070007B6F53E8003F3B673B6F23F00103C7F8DA
:10208000B4307B681B681433D7F8B420C7F88020BD
:10209000FB67F96FD7F8802041E80023BB67BB6F6F
:1020A000002BE1D17B681B6814333B663B6E53E821
:1020B000003FFB65FB6D23F04003C7F8B0307B6841
:1020C0001B681433D7F8B020FA66BB66B96EFA6E97
:1020D00041E800237B667B6E002BE3D17B682022E6
:1020E00083F842207B6800221A637B681B680C33EC
:1020F000FB64FB6C53E8003FBB64BB6C23F0100334
:10210000C7F8AC307B681B680C33D7F8AC20BA65D5
:102110007B65796DBA6D41E800233B653B6D002B13
:10212000E3D17B68DB6B1846FFF71FFB7B6802225D
:102130005A637B689A8D7B68DB8D9BB2D31A9BB206
:102140001946786800F0BFF89CE000BF53240008EF
:102150007B689A8D7B68DB8D9BB2D31AA7F8CE3053
:102160007B68DB8D9BB2002B00F08E80B7F8CE3001
:10217000002B00F089807B681B680C33BB63BB6B52
:1021800053E8003F7B637B6B23F49073C7F8C83040
:102190007B681B680C33D7F8C8207A643B64396CC1
:1021A0007A6C41E80023FB63FB6B002BE3D17B6877
:1021B0001B6814337B627B6A53E8003F3B623B6AD7
:1021C00023F00103C7F8C4307B681B681433D7F8C9
:1021D000C4203A63FB62F96A3A6B41E80023BB62B0
:1021E000BB6A002BE3D17B68202283F842207B6806
:1021F00000221A637B681B680C333B613B6953E820
:10220000003FFB60FB6823F01003C7F8C0307B6819
:102210001B680C33D7F8C020FA61BB61B969FA6951
:1022200041E800237B617B69002BE3D17B680222BC
:102230005A63B7F8CE301946786800F044F823E0C6
:10224000D7F8E43003F08003002B09D0D7F8E03052
:1022500003F08003002B03D0786800F00EF914E03F
:10226000D7F8E43003F04003002B0ED0D7F8E0306D
:1022700003F04003002B08D0786800F04DF904E02B
:1022800000BF02E000BF00E000BFE837BD4680BDF0
:1022900080B483B000AF786000BF0C37BD4680BC0F
:1022A000704780B483B000AF786000BF0C37BD4684
:1022B00080BC704780B483B000AF786000BF0C373B
:1022C000BD4680BC704780B483B000AF78600B46D9
:1022D0007B8000BF0C37BD4680BC704780B586B0A0
:1022E00000AFF860B9603B601346FB713BE03B6AAE
:1022F000B3F1FF3F37D0FEF71DFC02463B68D31A0F
:102300003A6A9A4202D33B6A002B01D103233AE096
:10231000FB681B68DB6803F00403002B23D0BB6859
:10232000802B20D0BB68402B1DD0FB681B681B682E
:1023300003F00803082B16D100237B61FB681B68A0
:102340001B687B61FB681B685B687B617B69F86865
:1023500000F01DF8FB6808225A64FB68002283F82D
:10236000402001230FE0FB681B681A68BB6813401C
:10237000BA689A420CBF01230023DBB21A46FB79EC
:102380009A42B4D0002318461837BD4680BD80B4A9
:1023900095B000AF78607B681B680C337B637B6B08
:1023A00053E8003F3B633B6B23F49073FB647B6813
:1023B0001B680C33FA6C3A64FB63F96B3A6C41E8C6
:1023C0000023BB63BB6B002BE5D17B681B68143318
:1023D0003B623B6A53E8003FFB61FB6923F001036A
:1023E000BB647B681B681433BA6CFA62BB62B96A5F
:1023F000FA6A41E800237B627B6A002BE5D17B68A7
:102400001B6B012B19D17B681B680C33FB60FB68CD
:1024100053E8003FBB60BB6823F010037B647B681C
:102420001B680C337A6CBA617B617969BA6941E8DF
:1024300000233B613B69002BE5D17B68202283F8B8
:1024400042207B6800221A6300BF5437BD4680BC1F
:10245000704780B584B000AF78607B685B6AFB60D2
:10246000FB680022DA85FB680022DA84F868FFF74F
:1024700021FF00BF1037BD4680BD80B485B000AFDE
:1024800078607B6893F84130DBB2212B3ED17B68CA
:102490009B68B3F5805F14D17B681B69002B10D15A
:1024A0007B681B6AFB60FB681B881A467B681B689D
:1024B000C2F308025A607B681B6A9A1C7B681A6226
:1024C00008E07B681B6A591C7A6811621A787B687D
:1024D0001B685A607B68DB8C9BB2013B9BB27A68BD
:1024E0001946D184002B0FD17B681B68DA687B68A2
:1024F0001B6822F08002DA607B681B68DA687B6800
:102500001B6842F04002DA60002300E00223184614
:102510001437BD4680BC704780B582B000AF78608C
:102520007B681B68DA687B681B6822F04002DA600F
:102530007B68202283F841207868FFF7A9FE0023FA
:1025400018460837BD4680BD80B58CB000AF7860B6
:102550007B6893F84230DBB2222B40F0AE807B6880
:102560009B68B3F5805F17D17B681B69002B13D183
:102570000023FB627B689B6ABB627B681B685B68AD
:102580009BB2C3F308039AB2BB6A1A807B689B6A4A
:102590009A1C7B689A6226E07B689B6AFB62002338
:1025A000BB627B689B68B3F5805F07D07B689B68E4
:1025B000002B0AD17B681B69002B06D17B681B6846
:1025C0005B68DAB2FB6A1A7008E07B681B685B68BC
:1025D000DBB203F07F03DAB2FB6A1A707B689B6A96
:1025E0005A1C7B689A627B68DB8D9BB2013B9BB275
:1025F0007A681946D185002B5DD17B681B68DA6843
:102600007B681B6822F02002DA607B681B68DA684E
:102610007B681B6822F48072DA607B681B685A69E9
:102620007B681B6822F001025A617B68202283F8D4
:1026300042207B6800225A637B681B6B012B35D1DB
:102640007B6800221A637B681B680C337B617B69A3
:1026500053E8003F3B613B6923F010037B627B68DA
:102660001B680C337A6A3A62FB61F9693A6A41E89D
:102670000023BB61BB69002BE5D17B681B681B682D
:1026800003F01003102B0AD10023FB607B681B684A
:102690001B68FB607B681B685B68FB60FB687B6892
:1026A0009B8D19467868FFF70EFE02E07868FFF709
:1026B000F8FD002302E0002300E002231846303733
:1026C000BD4680BD80B584B000AF78607B681B6874
:1026D0001B6923F440517B68DA687B681B680A43F6
:1026E0001A617B689A687B681B691A437B685B691F
:1026F0001343BB607B681B68DB6823F4B05323F093
:102700000C037A681268B9680B43D3607B681B6856
:102710005B6923F440717B689A697B681B680A4394
:102720005A617B681B682C4A934203D1FEF70EFE68
:10273000F86002E0FEF7F6FDF860FA6813469B00C9
:1027400013449A001A447B685B689B00B2FBF3F366
:10275000224AA2FB03235B091901FA6813469B0076
:1027600013449A001A447B685B689B00B2FBF3F247
:102770001A4BA3FB02035B09642000FB03F3D31A8B
:102780001B013233154AA2FB03235B0903F0F0035C
:102790001944FA6813469B0013449A001A447B6854
:1027A0005B689B00B2FBF3F20C4BA3FB02035B09DB
:1027B000642000FB03F3D31A1B013233074AA2FB48
:1027C00003235B0903F00F027B681B680A449A60CD
:1027D00000BF1037BD4680BD003801401F85EB515A
:1027E00080B483B000AF786039603B681A787B684A
:1027F0001A7000BF0C37BD4680BC704780B584B0EE
:1028000000AFF860B9607A607B68002B01D1FB688B
:1028100009E0FA68BB68104619467B681A4602F060
:10282000D0FE034600BF18461037BD4680BD80B5B8
:1028300084B000AFF860B9607A607B80FB68B968EB
:10284000184600F05EFAFB687A689A61FB687A883D
:102850009A83FB683A8BDA83FB6800221A62FB6872
:102860009869FB689B8B01221946FEF766FFFB689F
:102870009869FB68DB8B01221946FEF75EFFFB6857
:1028800018461037BD4680BD80B586B000AFF860F1
:102890007B600B46FB721346BB72F86800F0C1F810
:1028A000FB7A1946F86800F00EF90346002B14BFB6
:1028B00001230023DBB2002B05D0F86800F0DAF822
:1028C0004FF0FF3336E0BB7A1946F86800F0FBF8AA
:1028D0000346002B14BF01230023DBB2002B05D0DD
:1028E000F86800F0C7F84FF0FF3323E000237B6166
:1028F00018E07B697A6813441B781946F86800F081
:10290000E2F80346002B14BF01230023DBB2002BA7
:1029100005D0F86800F0AEF84FF0FF330AE07B69AD
:1029200001337B617A693B6A9A42E2DBF86800F026
:10293000A1F8002318461837BD4680BD90B587B072
:1029400000AFF8607B600B46FB721346BB72F86801
:1029500000F067F8FB7A1946F86800F0B4F803460F
:10296000002B14BF01230023DBB2002B05D0F86835
:1029700000F080F84FF0FF334FE0BB7A1946F8685B
:1029800000F0A1F80346002B14BF01230023DBB2A3
:10299000002B05D0F86800F06DF84FF0FF333CE0F5
:1029A000F86800F03EF8FB7A43F00103DBB2194609
:1029B000F86800F088F80346002B14BF01230023B9
:1029C000DBB2002B05D0F86800F054F84FF0FF336D
:1029D00023E000237B6118E07B697A68D418F868EB
:1029E00000F0D1F803462370BB6A013B7A699A4232
:1029F00004D10121F86800F00CF903E00021F86827
:102A000000F007F97B6901337B617A69BB6A9A42FE
:102A1000E2DBF86800F02EF8002318461C37BD46AC
:102A200090BD80B582B000AF78607B6898697B68A4
:102A3000DB8B01221946FEF780FE7B6898697B6874
:102A40009B8B01221946FEF778FE7B6898697B68AC
:102A5000DB8B00221946FEF770FE7B6898697B6865
:102A60009B8B00221946FEF768FE002318460837A4
:102A7000BD4680BD80B582B000AF78607B68986944
:102A80007B68DB8B00221946FEF757FE7B6898694E
:102A90007B689B8B00221946FEF74FFE7B68986986
:102AA0007B689B8B01221946FEF747FE7B6898697D
:102AB0007B68DB8B01221946FEF73FFE0023184698
:102AC0000837BD4680BD80B584B000AF78600B4646
:102AD000FB707B6898697B689B8B00221946FEF728
:102AE0002CFE7B6898697B68DB8B00221946FEF719
:102AF00024FE0023FB6033E07B6898697B689B8B36
:102B000000221946FEF719FEFA788021FB6841FA87
:102B100003F31340002B08D07B6898697B68DB8B3C
:102B200001221946FEF709FE07E07B6898697B6879
:102B3000DB8B00221946FEF700FE7B6898697B68F4
:102B40009B8B01221946FEF7F8FD7B6898697B682C
:102B50009B8B00221946FEF7F0FDFB680133FB60FA
:102B6000FB68072BC8DD7B6898697B68DB8B0122DB
:102B70001946FEF7E2FD786800F082F80346184631
:102B80001037BD4680BD80B584B000AF78600023AB
:102B9000FB737B6898697B68DB8B01221946FEF723
:102BA000CCFD0023BB602CE07B6898697B689B8B25
:102BB00001221946FEF7C1FD7B689A697B68DB8BB1
:102BC00019461046FEF7A2FD0346002B14BF012351
:102BD0000023DBB2002B09D08022BB6842FA03F34A
:102BE0005AB297F90F3013435BB2FB737B68986955
:102BF0007B689B8B00221946FEF79FFDBB68013363
:102C0000BB60BB68072BCFDDFB7B18461037BD468A
:102C100080BD80B582B000AF78600B46FB707B68EA
:102C200098697B689B8B00221946FEF786FDFB782E
:102C3000002B08D07B6898697B68DB8B01221946E2
:102C4000FEF77BFD07E07B6898697B68DB8B0022E1
:102C50001946FEF772FD7B6898697B689B8B0122A1
:102C60001946FEF76AFD7B6898697B689B8B00229A
:102C70001946FEF762FD002318460837BD4680BDA1
:102C800080B584B000AF78607B6898697B689B8B67
:102C900000221946FEF751FD7B6898697B68DB8B43
:102CA00001221946FEF749FD7B681B6A002B02D002
:102CB0000120FDF749FF7B6898697B689B8B0122A7
:102CC0001946FEF73AFD7B681B6A002B02D00120F3
:102CD000FDF73AFF7B689A697B68DB8B19461046E3
:102CE000FEF714FD0346FB737B6898697B689B8B3A
:102CF00000221946FEF721FDFB7B18461037BD4622
:102D000080BDB0B58AB000AF786039607C68786803
:102D100000F03CF80546386800F0BDF803467B62D9
:102D200007F10C037A6A3A62FB613B6ABB61FB699B
:102D30007B61BB693B6100BF00BF07F10C031A4612
:102D40002946204600F030F807F10C03184600F041
:102D500098F8386800F00FF80446386800F047F833
:102D600003461A462146786800F09FF87B681846AB
:102D70002837BD46B0BD80B483B000AF78607B68B3
:102D80001B6818460C37BD4680BC704780B582B0C2
:102D900000AF78607B680833184600F0B5F803464A
:102DA00018460837BD4680BD80B48BB000AFF860D0
:102DB000B9607A607B687B617B69FA687A623B62A2
:102DC0007B6AFB613B6ABB61FB68BA681A60FB689F
:102DD00018462C37BD4680BC704780B483B000AF26
:102DE00078607B6818460C37BD4680BC704780B55C
:102DF00082B000AF7860786800F02CF8034618467F
:102E00000837BD4680BD80B483B000AF78603960BC
:102E10007B683A681A6000BF0C37BD4680BC7047BB
:102E200080B483B000AF786039607B683A689A609C
:102E300000BF0C37BD4680BC704780B483B000AF84
:102E4000786039607B683A685A6000BF0C37BD46CD
:102E500080BC704780B584B000AF78607B685B68E9
:102E6000FB60786800F0D4F80246FB6893428CBFA0
:102E700001230023DBB2002BFB6818461037BD4648
:102E800080BD80B483B000AF78607B6818460C3793
:102E9000BD4680BC704780B483B000AF78607B686B
:102EA00018460C37BD4680BC704780B586B000AF71
:102EB000F860B9607A607B680F2B10D93B1D002247
:102EC0001946F86800F030F803461946F868FFF72D
:102ED0009AFF7B681946F868FFF7A2FF02E0FB68DB
:102EE0007B6100BFF868FFF746FF7B6801331A4635
:102EF000B96800F063F87B681946F868FFF79DFF32
:102F000000BF1837BD4680BD80B485B000AF786083
:102F10007B68FB60FB68BB60BB6800BF184614376A
:102F2000BD4680BC7047000090B585B000AFF8602A
:102F3000B9607A60BB681C68F86800F069F80346FD
:102F40009C428CBF01230023DBB2002B02D01A4825
:102F500002F071F8BB681B687A689A421CD2BB68A1
:102F60001A687B685B009A4216D27B685A00BB687D
:102F70001A60BB681C68F86800F04AF803469C4277
:102F80008CBF01230023DBB2002B05D0F86800F0D2
:102F90003FF80246BB681A60F868FFF71EFF02465A
:102FA000BB681B6801331946104600F055F803460C
:102FB00018461437BD4690BDCC5F000880B584B07C
:102FC00000AFF860B9607A607B68012B04D1B96802
:102FD000F868FFF705FC04E07A68B968F868FFF75D
:102FE0000DFC00BF1037BD4680BD80B483B000AF7C
:102FF000786039603B681A687B681B689A4201D226
:103000003B6800E07B6818460C37BD4680BC7047C3
:1030100080B588B000AF78606FF000433B6178689E
:10302000FFF739FF0346FB61FB69BB61BB697B614D
:103030006FF0004300BF00BFFB6007F10C0207F117
:10304000100311461846FFF7D0FF03461B68013BEB
:1030500018462037BD4680BD80B586B000AF786089
:1030600039607B683B613B68FB600022F968386926
:1030700000F008F8034600BF7B617B6918461837EB
:10308000BD4680BD80B586B000AFF860B9607A609B
:10309000FB687B616FF00042BB6893428CBF0123E9
:1030A0000023DBB2002B14BF01230023DBB2002B73
:1030B00001D001F0BAFFB86801F0A6FF034600BFD7
:1030C00018461837BD4680BD80B582B000AF786025
:1030D0000023002B04D0786800F04DF9034604E08B
:1030E0007868FDF785F8034600BF18460837BD46E7
:1030F00080BD000090B58FB002AFF860B960114696
:103100001A460B46FB801346BB80FC6807F1280378
:10311000FB6207F1280207F110031649184600F078
:1031200069F9FA8807F11001BB8800931346BA6861
:103130002046FFF77CFB07F11003184600F049F921
:1031400007F128031846FFF79CFEFB68D02283F89E
:103150002420FB6893F8243043F00103DAB2FB68C3
:1031600083F82520F86800F007F8FB681846343724
:10317000BD4690BDE45F000880B586B002AF7860C0
:103180000123FB7378687B6893F8241007F10F0321
:10319000012200926B22FFF777FB0346002B14BF3E
:1031A00001230023DBB2002B02D04FF0FF3378E085
:1031B0000023FB7378687B6893F8241007F10F03F2
:1031C000012200926C22FFF75FFB0346002B14BF25
:1031D00001230023DBB2002B02D06FF0010360E07B
:1031E0000923FB7378687B6893F8241007F10F03B9
:1031F000012200921922FFF747FB0346002B14BF60
:1032000001230023DBB2002B02D06FF0020348E061
:103210000623FB7378687B6893F8241007F10F038B
:10322000012200921A22FFF72FFB0346002B14BF46
:1032300001230023DBB2002B02D06FF0030330E048
:103240001823FB7378687B6893F8241007F10F0349
:10325000012200921B22FFF717FB0346002B14BF2D
:1032600001230023DBB2002B02D06FF0040318E02F
:103270001823FB7378687B6893F8241007F10F0319
:10328000012200921C22FFF7FFFA0346002B14BF15
:1032900001230023DBB2002B02D06FF0050300E016
:1032A000002318461037BD4680BD80B588B002AFF8
:1032B0007860396078687B6893F8241007F1080318
:1032C0000E2200923B22FFF739FB0346002B14BF6E
:1032D00001230023DBB2002B02D04FF0FF3346E086
:1032E0003B7A1BB21B021AB27B7A1BB213431AB28F
:1032F0003B681A80BB7A1BB21B021AB2FB7A1BB264
:1033000013431AB23B685A803B7B1BB21B021AB2B2
:103310007B7B1BB213431AB23B689A80BB7B1BB208
:103320001B021AB2FB7B1BB213431AB23B68DA8052
:103330003B7C1BB21B021AB27B7C1BB213431AB23A
:103340003B681A81BB7C1BB21B021AB2FB7C1BB20E
:1033500013431AB23B685A813B7D1BB21B021AB25F
:103360007B7D1BB213431AB23B689A810023184637
:103370001837BD4680BD80B584B000AF78600023AB
:10338000FB6002E0FB680133FB607A68FB68134472
:103390000022FA7207F10B021146184600F054F8A9
:1033A000034683F00103DBB2002BEBD1FB68184628
:1033B0001037BD4680BD80B584B000AF78607B68B3
:1033C000FB60F868FFF75DFD7B6818461037BD4667
:1033D00080BD80B582B000AF7860786800F062F898
:1033E0007B681846FFF7E7FF7B6818460837BD463D
:1033F00080BD0000B0B586B000AFF860B9607A60FB
:10340000FC68F868FFF7C2FC03467A681946204654
:1034100000F07CF8BB68002B02D10A4801F008FEDE
:10342000B868FFF751FE0246BB6813447B612B4628
:103430007A69B968F86800F0A0F8FB681846183790
:10344000BD46B0BDF05F000880B483B000AF7860C7
:1034500039607B681A783B681B789A420CBF01235D
:103460000023DBB218460C37BD4680BC704780B5E0
:1034700084B000AF7860396039687868FFF7DDFCA8
:103480007868FFF778FC02463B6813440022FA7321
:1034900007F10F0211461846FFF7A2F900BF1037D7
:1034A000BD4680BD80B582B000AF7860786800F01E
:1034B00010F8034683F00103DBB2002B05D07B68D4
:1034C0009B681946786800F0A3F800BF0837BD462E
:1034D00080BD90B583B000AF78607868FFF74BFC93
:1034E0000446786800F0B0F803469C420CBF012304
:1034F0000023DBB2002B04D07B685B680F2B012319
:1035000000E0002318460C37BD4690BD80B489B05A
:1035100000AFF860B9607A60FB68FB617B68BB61F3
:10352000FB697B61BB693B61FB68BA681A60FB6839
:1035300018462437BD4680BC704780B483B000AFC6
:10354000786039607B683A681A607B6818460C3787
:10355000BD4680BC704780B582B000AF78607B68A4
:103560001B68002B04D07B681B681846FFF79AFF86
:103570007B6818460837BD4680BD80B58CB000AF6B
:10358000F860B9607A603B70BB687B617B68FB6206
:103590007B6900BFBB62FB6A7B627A6ABB6AD31A33
:1035A00000BFFB61FB690F2B11D907F11C0300223F
:1035B0001946F868FFF7B8FC03461946F868FFF7A4
:1035C00022FCFB691946F868FFF72AFC02E0FB6859
:1035D0003B6200BF07F11803F9681846FFF7ADFF1B
:1035E000F868FFF7C8FB03467A68B968184600F028
:1035F00039F80023BB61FB691946F868FFF737FF0C
:1036000007F118031846FFF7A6FF3037BD4680BD07
:1036100090B587B000AF786039607868FFF7DDFB60
:1036200004467868FFF7A7FB02463B6801337C61DC
:103630003A61FB60FA683969786900F036F800BFD2
:1036400000BF1C37BD4690BD80B582B000AF78602A
:103650007B680833184600F019F803461846083707
:10366000BD4680BD80B586B000AFF860B9607A60B5
:10367000BB687B6179697A68BB68D31A1A46F868B7
:10368000FFF79CFC00BF1837BD4680BD80B485B0F5
:1036900000AF78607B68FB60FB68BB60BB6800BF05
:1036A00018461437BD4680BC704780B584B000AF63
:1036B000F860B9607A607968B86801F0A3FC1037E7
:1036C000BD4680BD80B582B000AF78607B6818468B
:1036D000FFF77FFE7B6818460837BD4680BD80B582
:1036E00082B000AF78607B681846FFF7EBFF7B681D
:1036F00018460837BD4680BD80B582B000AF7860FF
:10370000114B1B6803F00103002B0DD10223012292
:103710000E490F48FFF7EEFC0B4B01221A600D4AD1
:103720000D490B4801F069FC0C490948FFF7BDFD44
:103730000A4BB3F900301946094801F01DFEC820B4
:1037400000F0FEFE00BFEFE7CC00002000100140BB
:10375000A400002000000020DF36000890000020B8
:103760003C60000880B586B002AF786000F09EFC37
:103770000A4B01930423009300234FF4007208497D
:10378000084800F02DFDF86000F0AAFC002000F0D1
:1037900057FEFB6818461037BD4680BDA0000020CC
:1037A00048600008F936000880B584B002AF094BC4
:1037B000019301230093002380220749074800F06A
:1037C0000FFD786000F0E0FE7B6818460837BD46C4
:1037D00080BD00BFD000002064600008653700088D
:1037E00080B582B000AF7860391D4FF0FF33012201
:1037F0000348FEF731FA7B6818460837BD4680BD9E
:103800001C01002080B500AFFDF76CF900F00CF84A
:1038100000F068F800F0A4F800F00AF900F032F9BE
:10382000FFF7C2FF00BFFDE780B590B000AF07F122
:10383000180328220021184601F0F4FD3B1D002248
:103840001A605A609A60DA601A610123BB614FF412
:103850008033FB6100233B620123BB6202237B6355
:103860004FF48033BB634FF4E013FB6307F118039D
:103870001846FDF78DF90346002B01D000F02CF817
:103880000F237B600223BB600023FB604FF4806347
:103890003B6100237B613B1D02211846FDF7FAFBCB
:1038A0000346002B01D000F017F800BF4037BD469B
:1038B00080BD000080B582B000AF78607B681B6877
:1038C000044A934201D1FDF723F900BF0837BD46F2
:1038D00080BD00BF0014004080B400AF72B600BFCE
:1038E00000BFFDE780B586B000AF07F108030022F6
:1038F0001A605A609A60DA60174B9B69164A43F067
:1039000010039361144B9B6903F010037B607B6889
:10391000114B9B69104A43F0040393610E4B9B6962
:1039200003F004033B603B68012203210B48FDF7D1
:1039300004FF0323BB601123FB6001233B610323CE
:103940007B6107F1080319460448FDF761FD00BFDC
:103950001837BD4680BD00BF001002400010014076
:1039600080B586B000AF07F1080300221A605A60E4
:103970009A60DA603B4600221A605A601D4B4FF095
:1039800080421A601B4B47225A601A4B00229A60F1
:10399000184B40F2F312DA60164B00221A61154BF5
:1039A00000229A611348FCF777FC0346002B01D0F4
:1039B000FFF792FF4FF48053BB6007F108031946ED
:1039C0000C48FCF709FE0346002B01D0FFF784FFEB
:1039D00000233B6000237B603B4619460548FDF70A
:1039E00003F80346002B01D0FFF776FF00BF18371E
:1039F000BD4680BDD400002080B485B000AF7860A3
:103A00007B681B68B3F1804F0BD1084BDB69074A19
:103A100043F00103D361054BDB6903F00103FB6055
:103A2000FB6800BF1437BD4680BC704700100240E1
:103A300080B500AF114B124A1A60104B4FF4E132BF
:103A40005A600E4B00229A600C4B0022DA600B4B3E
:103A500000221A61094B0C225A61084B00229A611C
:103A6000064B0022DA610548FEF7A6F80346002B54
:103A700001D0FFF731FF00BF80BD00BF1C01002057
:103A80000038014080B500AF114B124A1A60104B4C
:103A90004FF4E1325A600E4B00229A600C4B002228
:103AA000DA600B4B00221A61094B0C225A61084B59
:103AB00000229A61064B0022DA610548FEF77CF885
:103AC0000346002B01D0FFF707FF00BF80BD00BFFA
:103AD000640100200044004080B58AB000AF7860E7
:103AE00007F1180300221A605A609A60DA607B6856
:103AF0001B683B4A934232D13A4B9B69394A43F4A3
:103B000080439361374B9B6903F480437B617B69FE
:103B1000344B9B69334A43F004039361314B9B69F7
:103B200003F004033B613B694FF40073BB61022364
:103B3000FB6103237B6207F1180319462A48FDF74E
:103B400067FC4FF48063BB610023FB6100233B6291
:103B500007F1180319462448FDF75AFC3CE07B683E
:103B60001B68224A934237D11E4BDB691D4A43F43E
:103B70000033D3611B4BDB6903F40033FB60FB684C
:103B8000184B9B69174A43F004039361154B9B69DB
:103B900003F00403BB60BB680423BB610223FB6129
:103BA00003237B6207F1180319460F48FDF730FC29
:103BB0000823BB610023FB6100233B6207F118036C
:103BC00019460948FDF724FC002200212620FDF7B4
:103BD000C9FF2620FDF7E2FF00BF2837BD4680BDA4
:103BE000003801400010024000080140004400403D
:103BF00080B400AF00BFFDE780B400AF00BFFDE7B9
:103C000080B400AF00BFFDE780B400AF00BFFDE7A8
:103C100080B400AF00BFFDE780B400AF00BFBD4679
:103C200080BC704780B500AF00F020FF0346012B39
:103C300001D000F099FA00BF80BD000080B500AF50
:103C40000248FEF795F800BF80BD00BF6401002068
:103C500080B500AF0248FCF7CFFB00BF80BD00BFBE
:103C6000AC01002080B485B000AF154B9B69144AAD
:103C700043F001039361124B9B6903F00103BB60A6
:103C8000BB680F4BDB690E4A43F08053D3610C4B8A
:103C9000DB6903F080537B607B680A4B5B68FB60E9
:103CA000FB6823F0E063FB60FB6843F00073FB609C
:103CB000044AFB68536000BF1437BD4680BC7047A0
:103CC000001002400000014080B58EB000AF786067
:103CD0000023FB620023BB62002387F83330344BA0
:103CE000DB69334A43F02003D361314BDB6903F0D6
:103CF0002003FB60FB6807F1100207F11403114673
:103D00001846FDF737FB3B6AFB62FB6A002B03D1C9
:103D1000FDF708FB786304E0FDF704FB03465B0056
:103D20007B637B6B234AA2FB03239B0C013BBB629F
:103D3000214B224A1A60204B40F2E732DA601E4AD9
:103D4000BB6A53601C4B00221A611B4B00229A6015
:103D5000194B00229A611848FCF79EFA034687F82F
:103D6000333097F83330002B1BD11348FCF7E4FABB
:103D7000034687F8333097F83330002B11D13720C2
:103D8000FDF70CFF7B680F2B08D8002279683720DD
:103D9000FDF7E8FE0A4A7B68136002E0012387F81A
:103DA000333097F8333018463837BD4680BD00BFF2
:103DB0000010024083DE1B43AC01002000140040D1
:103DC0000800002080B586B000AF7860144A154B1B
:103DD000D31A7B617B693B61134B1B68002B02D1BB
:103DE000114B124A1A60104B1A687B6813443A69E7
:103DF0009A4207D201F0B8FB03460C221A604FF03A
:103E0000FF3309E0084B1B68FB60074B1A687B68AF
:103E10001344054A1360FB6818461837BD4680BD39
:103E20000000012000040000F40100207048002080
:103E300080B400AF01231846BD4680BC704780B5F2
:103E400082B000AF7860396001F08EFB0346162225
:103E50001A604FF0FF3318460837BD4680BD80B565
:103E600082B000AF78604FF0FF317868FFF7E7FF6E
:103E700000BFFDE780B586B000AFF860B9607A603A
:103E800000237B610AE0AFF300800146BB685A1C47
:103E9000BA60CAB21A707B6901337B617A697B6848
:103EA0009A42F0DB7B6818461837BD4680BD80B566
:103EB00086B000AFF860B9607A6000237B6109E0EA
:103EC000BB685A1CBA601B781846FFF789FC7B69EF
:103ED00001337B617A697B689A42F1DB7B68184623
:103EE0001837BD4680BD80B483B000AF78604FF016
:103EF000FF3318460C37BD4680BC704780B483B092
:103F000000AF786039603B684FF400525A6000237C
:103F100018460C37BD4680BC704780B483B000AFF4
:103F20007860012318460C37BD4680BC704780B4CA
:103F300085B000AFF860B9607A6000231846143786
:103F4000BD4680BC70470000FCF7A0F90B480C4947
:103F50000C4A002302E0D458C4500433C4188C42E5
:103F6000F9D3094A094C002301E013600432A2424C
:103F7000FBD301F0FFFAFFF745FC7047000000207B
:103F800070000020E8600008700000206C480020ED
:103F9000FEE7000080B485B000AFF860B9607A60D9
:103FA000FB68043BFB60FB684FF080721A60FB68A3
:103FB000043BFB60BB6823F00102FB681A60FB68EE
:103FC000043BFB60084AFB681A60FB68143BFB601B
:103FD0007A68FB681A60FB68203BFB60FB68184648
:103FE0001437BD4680BC7047ED3F000880B483B0F5
:103FF00000AF00233B604FF0500383F31188BFF301
:104000006F8FBFF34F8F7B6000BF00BF3B68002BFB
:10401000FCD000BF00BF0C37BD4680BC704700001D
:10402000074B19680868B0E8F00F80F30988BFF300
:104030006F8F4FF0000080F311884EF00D0E704727
:10404000F801002000BF00BF06480068006880F348
:10405000088862B661B6BFF34F8FBFF36F8F00DF82
:1040600000BF000008ED00E000BF00BF80B500AF5A
:104070000C4B1B680B4A43F470031360094B1B681D
:10408000084A43F07043136000F090F8064B00229A
:104090001A60FFF7D9FF00F0F3FBFFF7A7FF00233B
:1040A000184680BD20ED00E01000002080B483B0F1
:1040B00000AF4FF0500383F31188BFF36F8FBFF34E
:1040C0004F8F7B6000BF054B1B680133034A1360B1
:1040D00000BF0C37BD4680BC704700BF10000020F9
:1040E00080B483B000AF0A4B1B68013B084A1360E1
:1040F000074B1B68002B05D100237B607B6883F393
:10410000118800BF00BF0C37BD4680BC704700BFA0
:10411000100000200000000000000000000000006F
:10412000EFF30980BFF36F8F0D4B1A6820E9F00F92
:10413000106008B54FF0500080F3118800F0A0FB2C
:104140004FF0000080F31188BDE808401968086846
:10415000B0E8F00F80F30988BFF36F8F704700BF9E
:10416000F801002000BF00BF80B582B000AF4FF063
:10417000500383F31188BFF36F8FBFF34F8F7B60C2
:1041800000BF00F0D5FA0346002B03D0064B4FF0DA
:1041900080521A6000233B603B6883F3118800BFA4
:1041A00000BF0837BD4680BD04ED00E080B400AF1D
:1041B000074B00221A60074B00221A60064B074A81
:1041C0001A60034B07221A6000BFBD4680BC7047CF
:1041D00010E000E018E000E014E000E03F1901000A
:1041E00080B58CB004AFF860B9603B601346FB80CB
:1041F000FB889B00184600F0BDFC78617B69002BB2
:104200000ED0542000F0B6FCF861FB69002B03D0FF
:10421000FB697A691A6305E0786900F045FD01E001
:104220000023FB61FB69002B13D0FA880023039362
:10423000FB690293FB6A0193BB6A00933B68B96810
:10424000F86800F00EF8F86900F08CF80123BB6103
:1042500002E04FF0FF33BB61BB6918462037BD4613
:1042600080BD80B586B000AFF860B9607A603B6011
:10427000BB6A186B7B689B001A46A52101F0D2F837
:10428000BB6A1A6B7B6803F18043013B9B001344BC
:104290003B613B6923F007033B61BB68002B1FD0E8
:1042A00000237B6112E0BA687B6913441978BA6A0B
:1042B0007B69134434330A461A70BA687B69134425
:1042C0001B78002B06D07B6901337B617B690F2B48
:1042D000E9D900E000BFBB6A002283F8432003E075
:1042E000BB6A002283F834203B6A042B01D90423E3
:1042F0003B62BB6A3A6ADA62BB6A0433184600F072
:10430000ECFDBB6A1833184600F0E7FDBB6ABA6AD9
:104310001A613B6AC3F10502BB6A9A61BB6ABA6A59
:104320005A62BB6A4C3304220021184601F07AF825
:10433000BB6A503301220021184601F073F83A6835
:10434000F9683869FFF726FE0246BB6A1A607B6A85
:10435000002B02D07B6ABA6A1A6000BF1837BD46CC
:1043600080BD000080B582B000AF7860FFF79EFE90
:104370002C4B1B6801332B4A13602B4B1B68002B03
:1043800009D1294A7B681360264B1B68012B10D189
:1043900000F0D4FA0DE0254B1B68002B09D1224B0D
:1043A0001B68DA6A7B68DB6A9A4202D81E4A7B681D
:1043B00013601F4B1B6801331D4A13601C4B1A68A6
:1043C0007B685A647B68DB6A01229A40194B1B6840
:1043D0001343184A13607B68DA6A13469B00134440
:1043E0009B00154A1A447B6804331946104600F0B6
:1043F00080FDFFF775FE0D4B1B68002B0ED00A4B9E
:104400001B68DA6A7B68DB6A9A4207D20B4B4FF073
:1044100080521A60BFF34F8FBFF36F8F00BF083712
:10442000BD4680BDD0020020F8010020DC02002043
:10443000EC020020D8020020FC01002004ED00E086
:1044400080B584B000AF7860FFF730FE7B68002B4A
:1044500003D1324B1B68FB6001E07B68FB60FB68AB
:104460000433184600F0A0FD0346002B15D1FB686D
:10447000DA6A2B4913469B0013449B000B441B68CC
:10448000002B0AD1FB68DB6A012202FA03F3DA434C
:10449000244B1B681340234A1360FB689B6A002B64
:1044A00004D0FB681833184600F07EFD1E4B1B68D5
:1044B00001331D4A1360194B1B68FA689A420BD1ED
:1044C000FB6804331946194800F013FD184B1B68AC
:1044D0000133174A136009E0164B1B68013B154A6C
:1044E0001360F86800F098FA00F0A6FAFFF7F8FDFC
:1044F000114B1B68002B0CD0084B1B68FA689A42C2
:1045000007D10E4B4FF080521A60BFF34F8FBFF3AD
:104510006F8F00BF1037BD4680BD00BFF80100207F
:10452000FC010020D8020020EC020020A4020020A0
:10453000B8020020D0020020DC02002004ED00E0E0
:1045400080B584B000AF78600023FB607B68002BEF
:1045500008D000F051F80021786800F0A5FA00F0CA
:1045600059F8F860FB68002B07D1064B4FF08052DA
:104570001A60BFF34F8FBFF36F8F00BF1037BD4678
:1045800080BD00BF04ED00E080B584B002AF144BE5
:104590000193002300930023802212491248FFF761
:1045A0001FFE78607B68012B15D14FF0500383F319
:1045B0001188BFF36F8FBFF34F8F3B6000BF0B4B72
:1045C0004FF0FF321A600A4B01221A60094B002299
:1045D0001A60FFF74BFD00BF0837BD4680BD00BF26
:1045E000F4020020706000080D490008F00200206D
:1045F000DC020020D402002080B400AF044B1B6812
:104600000133034A136000BFBD4680BC704700BF42
:10461000F802002080B584B000AF0023FB600023C7
:10462000BB60FFF743FD394B1B68013B374A136002
:10463000364B1B68002B61D1354B1B68002B5DD0BE
:104640002EE0344BDB68DB68FB60FB6818331846F0
:1046500000F0AAFCFB680433184600F0A5FCFB68D8
:10466000DB6A01229A402C4B1B6813432A4A1360D1
:10467000FB68DA6A13469B0013449B00274A1A44DE
:10468000FB6804331946104600F033FCFB68DA6A15
:10469000234B1B68DB6A9A4202D3224B01221A6029
:1046A0001C4B1B68002BCCD1FB68002B01D000F009
:1046B000C3F91D4B1B687B607B68002B10D000F09A
:1046C00037F80346002B02D0164B01221A607B6894
:1046D000013B7B607B68002BF1D1134B00221A60F9
:1046E000104B1B68002B09D00123BB600F4B4FF010
:1046F00080521A60BFF34F8FBFF36F8FFFF7F0FC4C
:10470000BB6818461037BD4680BD00BFF8020020C8
:10471000D002002090020020D8020020FC010020DE
:10472000F8010020E4020020E002002004ED00E097
:1047300080B586B000AF00237B61464B1B68002B21
:104740007DD1454B1B6801333B61434A3B69136094
:104750003B69002B10D1414B1B68FB60404B1B6831
:104760003E4A13603E4AFB6813603E4B1B680133B0
:104770003C4A136000F060F93B4B1B683A699A426F
:1047800048D3364B1B681B68002B04D1364B4FF0C7
:10479000FF321A603EE0314B1B68DB68DB68BB60B0
:1047A000BB685B687B603A697B689A4203D22E4A99
:1047B0007B6813602EE0BB680433184600F0F4FBFE
:1047C000BB689B6A002B04D0BB681833184600F006
:1047D000EBFBBB68DB6A01229A40244B1B68134346
:1047E000224A1360BB68DA6A13469B0013449B009D
:1047F0001F4A1A44BB6804331946104600F079FB7F
:10480000BB68DA6A1B4B1B68DB6A9A42B9D3012387
:104810007B61B6E7174B1B68DA6A154913469B00A4
:1048200013449B000B441B68012B01D901237B61BE
:10483000114B1B68002B07D001237B6104E00F4B59
:104840001B6801330D4A13607B6918461837BD4653
:1048500080BD00BFF8020020D402002088020020A2
:104860008C020020E8020020F0020020D802002084
:10487000FC010020F8010020E4020020E0020020FA
:1048800080B485B000AF1C4B1B68002B03D01B4BC2
:1048900001221A602AE0194B00221A60184B1B688B
:1048A0007B607B68B3FA83F3FB70FB78C3F11F0373
:1048B000FB60FA6813469B0013449B00114A1344A3
:1048C000BB60BB685B685A68BB685A60BB685A6863
:1048D000BB6808339A4204D1BB685B685A68BB68FE
:1048E0005A60BB685B68DB68074A136000BF143717
:1048F000BD4680BC704700BFF8020020E4020020E3
:10490000D8020020FC010020F801002080B582B010
:1049100000AF786000F052F8064B1B68012BF9D904
:10492000054B4FF080521A60BFF34F8FBFF36F8F6C
:10493000F0E700BFFC01002004ED00E080B582B08C
:1049400000AF00237B600CE07A6813469B001344A1
:104950009B00124A1344184600F0A0FA7B6801330A
:104960007B607B68042BEFD90D4800F097FA0D4867
:1049700000F094FA0C4800F091FA0C4800F08EFA1E
:104980000B4800F08BFA0B4B054A1A600A4B054A9C
:104990001A6000BF0837BD4680BD00BFFC01002083
:1049A000600200207402002090020020A402002077
:1049B000BC020020880200208C02002080B582B05A
:1049C00000AF19E0FFF772FB104BDB68DB687B6020
:1049D0007B680433184600F0E7FA0D4B1B68013B77
:1049E0000B4A13600B4B1B68013B0A4A1360FFF72D
:1049F00077FB786800F010F8064B1B68002BE1D1BC
:104A000000BF00BF0837BD4680BD00BFA402002024
:104A1000D0020020B802002080B582B000AF7860DC
:104A20007B681B6B184600F03FF9786800F03CF992
:104A300000BF0837BD4680BD80B400AF094B1B687E
:104A40001B68002B04D1084B4FF0FF321A6005E0C1
:104A5000044B1B68DB681B68034A136000BFBD463C
:104A600080BC704788020020F002002080B483B030
:104A700000AF0B4B1B68002B02D101237B6008E0C9
:104A8000084B1B68002B02D102237B6001E000234E
:104A90007B607B6818460C37BD4680BC704700BF02
:104AA000DC020020F802002080B584B000AF7860FE
:104AB0003960294B1B68FB60284B1B680433184680
:104AC00000F072FA0346002B0BD1244B1B68DB6A03
:104AD000012202FA03F3DA43214B1B681340204AF8
:104AE00013607B68B3F1FF3F0AD13B68002B07D00E
:104AF0001A4B1B68043319461A4800F0FAF926E0ED
:104B0000FA687B681344BB60144B1B68BA685A6030
:104B1000BA68FB689A4209D2134B1A680F4B1B689C
:104B200004331946104600F007FA10E00F4B1A68DC
:104B30000A4B1B6804331946104600F0FDF90C4B74
:104B40001B68BA689A4202D2094ABB68136000BF68
:104B50001037BD4680BD00BFD4020020F801002000
:104B6000D8020020BC0200208C0200208802002015
:104B7000F002002080B586B000AF78600023FB60B3
:104B8000FFF73AFD424B1B68002B01D100F0CCF837
:104B9000404B1A687B681340002B72D17B68002B56
:104BA0000DD008227B6813447B607B6803F0070309
:104BB000002B04D07B6823F0070308337B607B68FD
:104BC000002B5ED0344B1B687A689A4259D8334B1D
:104BD0003B61324B1B687B6104E07B693B617B6915
:104BE0001B687B617B695B687A689A4203D97B6941
:104BF0001B68002BF1D1264B1B687A699A4240D082
:104C00003B691B6808221344FB607B691A683B6997
:104C10001A607B695A687B68D21A08235B009A4243
:104C20000FD97A697B681344BB607B695A687B68DB
:104C3000D21ABB685A607B697A685A60B86800F01B
:104C4000D5F8154B1A687B695B68D31A124A136052
:104C5000114B1A68124B1B689A4203D20E4B1B6809
:104C60000F4A13607B695A680A4B1B681A437B69B9
:104C70005A607B6900221A600A4B1B680133094A9B
:104C80001360FFF7C7FCFB6818461837BD4680BDA8
:104C9000044700201847002008470020FC46002059
:104CA0000C4700201047002080B584B000AF78602A
:104CB0007B68FB607B68002B2CD008235B42FA6882
:104CC0001344FB60FB68BB60BB685A68134B1B68EE
:104CD0001340002B1ED0BB681B68002B1AD1BB6889
:104CE0005A680E4B1B68DB431A40BB685A60FFF7DB
:104CF00083FCBB685A680A4B1B681344084A13605C
:104D0000B86800F073F8074B1B680133054A13605D
:104D1000FFF780FC00BF1037BD4680BD184700205C
:104D2000084700201447002080B485B000AF4FF43E
:104D30008843BB60274BFB60FB6803F00703002B35
:104D40000CD0FB680733FB60FB6823F00703FB60B4
:104D5000BA68FB68D31A1F4A1344BB60FB687B60C8
:104D60001D4A7B6813601C4B00225A607B68BA683E
:104D70001344FB600822FB689B1AFB60FB6823F06E
:104D80000703FB60FB68154A1360144B1B68002285
:104D90005A60124B1B6800221A607B683B603B68BC
:104DA000FA68D21A3B685A600C4B1A683B681A6062
:104DB0003B685B680A4A13603B685B68094A13609A
:104DC000094B4FF000421A6000BF1437BD4680BC4B
:104DD000704700BFFC020020FC4600200447002072
:104DE0000C470020084700201847002080B485B0F9
:104DF00000AF7860274BFB6002E0FB681B68FB603C
:104E0000FB681B687A689A42F7D8FB68BB60FB684E
:104E10005B68BA6813447A689A4208D1FB685A689A
:104E20007B685B681A44FB685A60FB687B607B6840
:104E3000BB607B685B68BA681A44FB681B689A426F
:104E400018D1FB681A68144B1B689A420DD07B6816
:104E50005A68FB681B685B681A447B685A60FB6889
:104E60001B681A687B681A6008E00B4B1A687B683D
:104E70001A6003E0FB681A687B681A60FA687B684E
:104E80009A4202D0FB687A681A6000BF1437BD46A8
:104E900080BC7047FC4600200447002080B483B0EB
:104EA00000AF78607B6803F108027B685A607B681A
:104EB0004FF0FF329A607B6803F108027B68DA608A
:104EC0007B6803F108027B681A617B6800221A6024
:104ED00000BF0C37BD4680BC704780B483B000AFC4
:104EE00078607B6800221A6100BF0C37BD4680BC29
:104EF000704780B485B000AF786039607B685B68CC
:104F0000FB603B68FA685A60FB689A683B689A6085
:104F1000FB689B683A685A60FB683A689A603B682D
:104F20007A681A617B681B685A1C7B681A6000BF2C
:104F30001437BD4680BC704780B485B000AF786040
:104F400039603B681B68BB60BB68B3F1FF3F03D1AE
:104F50007B681B69FB600CE07B680833FB6002E048
:104F6000FB685B68FB60FB685B681B68BA689A4219
:104F7000F6D2FB685A683B685A603B685B683A68DF
:104F80009A603B68FA689A60FB683A685A603B68C6
:104F90007A681A617B681B685A1C7B681A6000BFBC
:104FA0001437BD4680BC704780B485B000AF7860D0
:104FB0007B681B69FB607B685B687A6892689A60B3
:104FC0007B689B687A6852685A60FB685B687A689D
:104FD0009A4203D17B689A68FB685A607B6800221A
:104FE0001A61FB681B685A1EFB681A60FB681B6825
:104FF00018461437BD4680BC70470B46014618461C
:1050000000F0E8B800F01AB8012838BF012010B548
:105010000446204600F024F800B110BD00F010F85E
:1050200008B900F015F88047F3E708B500F010F86C
:1050300008B500F00DF808B500F00AF800F018B84F
:10504000024B1868BFF35B8F704700BF1C470020FE
:10505000062008B500F016FA0120FEF700FF000058
:10506000024B0146186800F02DB800BF2000002058
:10507000024B0146186800F0B3BA00BF20000020C0
:1050800070B50F4C0E462168054611B900F04AFA7A
:1050900020603146284600F045FA431C03D14FF00A
:1050A000FF34204670BDC41C24F00304A042F8D095
:1050B000211A284600F036FA0130F2D1EFE700BF9E
:1050C000204700202DE9F843CD1C25F003050835C5
:1050D0000C2D38BF0C25002D064601DBA94204D952
:1050E0000C2333600020BDE8F883334F00F066F8EE
:1050F0003B681C463CBB29463046FFF7C1FF431CBA
:10510000044656D13C68A046B8F1000F40D1002CAF
:1051100049D023684146304604EB030900F002FA07
:10512000814540D1216830466D1A2946FFF7A8FF16
:10513000013038D023682B4423603B685A685ABB3F
:10514000C7F800800EE02268521B1ED40B2A16D925
:105150006119A342256018BF5960636808BF3960B0
:1051600062514B60304600F02FF804F10B00231D14
:1051700020F00700C21A1CBF1B1AA350B3E76268D5
:10518000A3420CBF3A605A60ECE723466468B1E77B
:105190004446D8F80480B7E71A465B68A342FBD1BF
:1051A00000235360DEE70C233046336000F00CF838
:1051B00098E70560D6E700BF24470020014800F0CB
:1051C000FEB900BF68480020014800F0F9B900BFEF
:1051D0006848002010B5054C13462CB10A4601461C
:1051E0000220AFF3008010BD2046FCE70000000065
:1051F000002310B50446C0E90033C0E904338360DE
:1052000081814366C2818361194608225C3000F0C7
:1052100009F90D4B246263620C4BA3620C4BE362F1
:105220000C4B23630C4B9C4206D003F16802944262
:1052300002D0D0339C4205D104F15800BDE81040A3
:1052400000F0BCB910BD00BF9D530008BF5300085B
:10525000F75300081D54000828470020024A03495C
:10526000034800F06BB800BF14000020255D000863
:105270002400002041680C4B10B59942044601D02F
:1052800000F050FDA168094B994202D0204600F081
:1052900049FDE168064B994204D02046BDE8104024
:1052A00000F040BD10BD00BF2847002090470020FF
:1052B000F847002010B50A4B0A4A04211A600A4830
:1052C0000022FFF795FF012209210848FFF790FF10
:1052D000BDE81040022212210548FFF789BF00BF38
:1052E000604800205D5200082847002090470020B9
:1052F000F8470020014800F062B900BF694800206B
:10530000014800F05DB900BF6948002010B50446AF
:10531000FFF7F0FF236A1BB1BDE81040FFF7F0BFB5
:10532000044B2362044B1B68002BF5D1FFF7C2FF2F
:10533000F2E700BF75520008604800202DE9F843ED
:105340008046894614460026D4E90175013F05D5FB
:105350002468002CF8D13046BDE8F883AB89012BD6
:1053600007D9B5F90E30013303D029464046C84766
:1053700006436835EAE700000FB407B5064904ABF9
:10538000086853F8042B8168019300F09BF903B07F
:105390005DF804EB04B070472000002010B50C4607
:1053A000B1F90E1000F098F80028ABBF636DA38927
:1053B0001B1823F48053ACBF6365A38110BD2DE996
:1053C000F0411F468B890546DB050C46164605D580
:1053D00002230022B1F90E1000F06CF8A3893246C6
:1053E00023F48053A38128463B46B4F90E10BDE850
:1053F000F04100F0A7B810B50C46B1F90E1000F05E
:1054000059F8B4F90C30421C0BBF23F4805343F419
:105410008053A381A38118BF606510BDB1F90E1040
:1054200000F038B803460244934200D1704703F8B5
:10543000011BF9E71F2938B505460C4604D9162388
:1054400003604FF0FF3038BDC26B12B152F821300B
:105450004BB9284600F064F8224601462846BDE8CC
:10546000384000F04BB8012B0AD0591C03D1162349
:1054700003600120E7E70021204642F82410984706
:105480000020E0E7024B01461868FFF7D3BF00BFDA
:105490002000002038B50023054C0546084623604F
:1054A000FEF721FD431C02D1236803B12B6038BDF8
:1054B0006448002038B50546084611460022054CD0
:1054C00022601A46FEF733FD431C02D1236803B164
:1054D0002B6038BD6448002038B5054608461146A3
:1054E0000022054C22601A46FEF7C4FC431C02D180
:1054F000236803B12B6038BD6448002038B5002311
:10550000064C0546084611462360FEF798FC431CEE
:1055100002D1236803B12B6038BD00BF644800206E
:10552000FEF786BC38B50023054C054608462360C7
:10553000FEF748FC431C02D1236803B12B6038BD41
:105540006448002038B50546084611460022054C3F
:1055500022601A46FEF7ABFC431C02D1236803B15C
:105560002B6038BD64480020014B1868704700BFAD
:105570002000002070B500260C4C0D4B1D1BB6EB17
:10558000A50F09D1002600F015FD0A4C0A4B1D1B82
:10559000B6EBA50F05D170BD54F8043B9847013612
:1055A000EDE754F8043B98470136F1E7E060000866
:1055B000E0600008E0600008E460000870477047A1
:1055C00070470A44914200F1FF3300D1704710B593
:1055D00011F8014B914203F8014FF9D110BD0000C1
:1055E00037B5002942D051F8043C0C1F002BB8BF3E
:1055F000E4180190FFF7E2FD1D4A0198136833B9E2
:105600006360146003B0BDE83040FFF7DDBDA34226
:1056100008D9256861198B4201BF19685B6849196F
:105620002160EDE71A465B680BB1A342FAD9116815
:105630005518A5420BD1246821445418A342116087
:10564000E0D11C685B680C4414605360DAE702D94F
:105650000C230360D6E7256861198B4201BF1968E6
:105660005B684919216063605460CBE703B030BDCB
:1056700024470020936810B4013B002B936007DAA5
:105680009469A34201DB0A2902D110BC00F072BB6D
:105690001368581C10601970084610BC7047F8B5A4
:1056A00006460F461446D518AC4201D1002007E04B
:1056B0003A46304614F8011BFFF7DCFF431CF3D1D8
:1056C000F8BD00002DE9F04706460D4614461F467A
:1056D0009CB018B1036A0BB9FFF718FE6B6ED907BF
:1056E00005D4AB899A0502D4A86DFFF768FFAB8992
:1056F0001B0701D52B699BB92946304600F078FB82
:1057000070B16B6EDE0704D54FF0FF301CB0BDE802
:10571000F087AB899C05F7D4A86DFFF751FFF3E73D
:105720000023099320238DF8293030234FF00108FE
:105730000397694F8DF82A3023461A7899461AB193
:10574000252A03F10103F8D1B9EB040A0BD0534623
:10575000224629463046FFF7A2FF013000F0A38021
:10576000099A5244099299F80030002B00F09B806E
:1057700000224FF0FF33CDE9053209F1010904920F
:1057800007928DF853201A924C46052214F8011BFB
:10579000514800F081FB049AD0B9D00644BF2023C1
:1057A0008DF85330110744BF2B238DF8533099F8EF
:1057B00000302A2B13D04B4600204FF00A0C0799DB
:1057C0001A781C46303A092A4AD9A8B1079113E041
:1057D000C01B08FA00F01043A1460490D4E7039BD5
:1057E000191D1B680391002BBBBF5B4242F00202F4
:1057F00007930793B8BF049223782E2B0AD16378BE
:105800002A2B32D1039B02341A1D1B68039243EAF0
:10581000E3730593DFF8C49003224846217800F033
:105820003BFB38B14022049BA0EB090082401343AC
:10583000013404932178062229488DF8281000F0BD
:105840002BFB00283ED0274818BB039B073323F0CF
:10585000070308330393099B0134034409936BE75F
:1058600001200CFB01210133AAE700234FF00A0CB1
:1058700018460593611C0A780C46303A092A03D968
:10588000002BC7D00590C5E701230CFB0020013198
:10589000F1E703AB00932A463046134B04A9AFF35C
:1058A0000080431CD7D16B6ED90705D4AB899A050C
:1058B00002D4A86DFFF784FEAB895B063FF524AFE9
:1058C000099823E703AB00932A463046064B04A908
:1058D00000F082F8E5E700BFA2600008A8600008B9
:1058E000AC600008000000009F5600082DE9F0475A
:1058F000914698468A680B6907469342B8BF13469B
:10590000C9F8003091F843200C46089E12B10133CB
:10591000C9F800302368990642BFD9F80030023335
:10592000C9F80030256815F0060507D104F1190AF9
:10593000E368D9F800209B1AAB4229DC94F8433085
:105940002268003B18BF012392062ED441463846F8
:1059500004F14302B047013021D02368A16803F06D
:105960000603042B12BF0025E568D9F80030226930
:1059700004BFED1A25EAE5758B1A2B449142C8BF86
:105980001D464FF000091A344D451AD1002008E099
:105990000123524641463846B047013003D14FF00B
:1059A000FF30BDE8F0870135C2E73020E11881F80B
:1059B00043005A1C94F845102244023382F84310E5
:1059C000C4E70123224641463846B0470130E6D0BD
:1059D00009F10109D8E700002DE9F04398460B7E54
:1059E00085B0782B174606460C460C9A09D8622BD0
:1059F00001F1430108D8002B00F0DC80582B00F0A7
:105A0000BD8004F1420539E0A3F163001528F8D800
:105A100001A555F820F000BF715A0008855A00080A
:105A2000035A0008035A0008035A0008035A0008E2
:105A3000855A0008035A0008035A0008035A000850
:105A4000035A0008955B0008B15A0008435B000840
:105A5000035A0008035A0008BD5B0008035A0008F7
:105A6000B15A0008035A0008035A00084B5B0008AB
:105A7000136804F14205191D1B68116084F8423057
:105A80000123A8E013682568181D1060280601D5B9
:105A90001B6803E06A06FBD5B3F90030002B03DA7C
:105AA0002D225B4284F843200A22DFF878C113E0FC
:105AB0002568106815F0800F50F8043B02D16D0680
:105AC00048BF9BB21060227EDFF858C16F2A5DD1BB
:105AD0000822002084F843006568002DA56005DBDE
